{
  "_format": "hh-sol-artifact-1",
  "contractName": "Upload",
  "sourceName": "contracts/Upload.sol",
  "abi": [
    {
      "inputs": [
        {
          "internalType": "address",
          "name": "_owner",
          "type": "address"
        },
        {
          "internalType": "string",
          "name": "_name",
          "type": "string"
        },
        {
          "internalType": "string",
          "name": "_description",
          "type": "string"
        },
        {
          "internalType": "string",
          "name": "_extension",
          "type": "string"
        },
        {
          "internalType": "bool",
          "name": "_isFavourite",
          "type": "bool"
        },
        {
          "internalType": "enum Upload.Tags",
          "name": "_tag",
          "type": "uint8"
        },
        {
          "internalType": "string",
          "name": "_cid",
          "type": "string"
        }
      ],
      "name": "add",
      "outputs": [],
      "stateMutability": "nonpayable",
      "type": "function"
    },
    {
      "inputs": [
        {
          "internalType": "address",
          "name": "user",
          "type": "address"
        }
      ],
      "name": "allow",
      "outputs": [],
      "stateMutability": "nonpayable",
      "type": "function"
    },
    {
      "inputs": [
        {
          "internalType": "address",
          "name": "user",
          "type": "address"
        }
      ],
      "name": "disallow",
      "outputs": [],
      "stateMutability": "nonpayable",
      "type": "function"
    },
    {
      "inputs": [
        {
          "internalType": "address",
          "name": "_user",
          "type": "address"
        }
      ],
      "name": "display",
      "outputs": [
        {
          "internalType": "string[]",
          "name": "",
          "type": "string[]"
        }
      ],
      "stateMutability": "view",
      "type": "function"
    },
    {
      "inputs": [],
      "name": "shareAccess",
      "outputs": [
        {
          "components": [
            {
              "internalType": "address",
              "name": "user",
              "type": "address"
            },
            {
              "internalType": "bool",
              "name": "access",
              "type": "bool"
            }
          ],
          "internalType": "struct Upload.Access[]",
          "name": "",
          "type": "tuple[]"
        }
      ],
      "stateMutability": "view",
      "type": "function"
    }
  ],
  "bytecode": "0x608060405234801561001057600080fd5b506117ad806100206000396000f3fe608060405234801561001057600080fd5b50600436106100575760003560e01c8063820fb2241461005c578063a9ed9cb814610078578063bc8bef8114610094578063eb39113f146100b2578063ff9913e8146100e2575b600080fd5b61007660048036038101906100719190610f49565b6100fe565b005b610092600480360381019061008d919061105b565b61033a565b005b61009c61055c565b6040516100a99190611184565b60405180910390f35b6100cc60048036038101906100c7919061105b565b610665565b6040516100d991906112e7565b60405180910390f35b6100fc60048036038101906100f7919061105b565b61087b565b005b6000604051806101800160405280610114610cc1565b81526020018973ffffffffffffffffffffffffffffffffffffffff1681526020014281526020016000815260200160008152602001851515815260200160001515815260200183815260200188815260200187815260200186815260200184600681111561018557610184611309565b5b8152509050600460003373ffffffffffffffffffffffffffffffffffffffff1673ffffffffffffffffffffffffffffffffffffffff1681526020019081526020016000208190806001815401808255809150506001900390600052602060002090600b02016000909190919091506000820151816000015560208201518160010160006101000a81548173ffffffffffffffffffffffffffffffffffffffff021916908373ffffffffffffffffffffffffffffffffffffffff16021790555060408201518160020155606082015181600301556080820151816004015560a08201518160050160006101000a81548160ff02191690831515021790555060c08201518160050160016101000a81548160ff02191690831515021790555060e08201518160060190816102b7919061154e565b506101008201518160070190816102ce919061154e565b506101208201518160080190816102e5919061154e565b506101408201518160090190816102fc919061154e565b5061016082015181600a0160006101000a81548160ff0219169083600681111561032957610328611309565b5b021790555050505050505050505050565b6000600160003373ffffffffffffffffffffffffffffffffffffffff1673ffffffffffffffffffffffffffffffffffffffff16815260200190815260200160002060008373ffffffffffffffffffffffffffffffffffffffff1673ffffffffffffffffffffffffffffffffffffffff16815260200190815260200160002060006101000a81548160ff02191690831515021790555060005b600260003373ffffffffffffffffffffffffffffffffffffffff1673ffffffffffffffffffffffffffffffffffffffff16815260200190815260200160002080549050811015610558578173ffffffffffffffffffffffffffffffffffffffff16600260003373ffffffffffffffffffffffffffffffffffffffff1673ffffffffffffffffffffffffffffffffffffffff168152602001908152602001600020828154811061048457610483611620565b5b9060005260206000200160000160009054906101000a900473ffffffffffffffffffffffffffffffffffffffff1673ffffffffffffffffffffffffffffffffffffffff1603610545576000600260003373ffffffffffffffffffffffffffffffffffffffff1673ffffffffffffffffffffffffffffffffffffffff16815260200190815260200160002082815481106105205761051f611620565b5b9060005260206000200160000160146101000a81548160ff0219169083151502179055505b80806105509061167e565b9150506103d2565b5050565b6060600260003373ffffffffffffffffffffffffffffffffffffffff1673ffffffffffffffffffffffffffffffffffffffff168152602001908152602001600020805480602002602001604051908101604052809291908181526020016000905b8282101561065c578382906000526020600020016040518060400160405290816000820160009054906101000a900473ffffffffffffffffffffffffffffffffffffffff1673ffffffffffffffffffffffffffffffffffffffff1673ffffffffffffffffffffffffffffffffffffffff1681526020016000820160149054906101000a900460ff161515151581525050815260200190600101906105bd565b50505050905090565b60603373ffffffffffffffffffffffffffffffffffffffff168273ffffffffffffffffffffffffffffffffffffffff1614806107275750600160008373ffffffffffffffffffffffffffffffffffffffff1673ffffffffffffffffffffffffffffffffffffffff16815260200190815260200160002060003373ffffffffffffffffffffffffffffffffffffffff1673ffffffffffffffffffffffffffffffffffffffff16815260200190815260200160002060009054906101000a900460ff165b610766576040517f08c379a000000000000000000000000000000000000000000000000000000000815260040161075d90611723565b60405180910390fd5b6000808373ffffffffffffffffffffffffffffffffffffffff1673ffffffffffffffffffffffffffffffffffffffff168152602001908152602001600020805480602002602001604051908101604052809291908181526020016000905b828210156108705783829060005260206000200180546107e390611367565b80601f016020809104026020016040519081016040528092919081815260200182805461080f90611367565b801561085c5780601f106108315761010080835404028352916020019161085c565b820191906000526020600020905b81548152906001019060200180831161083f57829003601f168201915b5050505050815260200190600101906107c4565b505050509050919050565b60018060003373ffffffffffffffffffffffffffffffffffffffff1673ffffffffffffffffffffffffffffffffffffffff16815260200190815260200160002060008373ffffffffffffffffffffffffffffffffffffffff1673ffffffffffffffffffffffffffffffffffffffff16815260200190815260200160002060006101000a81548160ff021916908315150217905550600360003373ffffffffffffffffffffffffffffffffffffffff1673ffffffffffffffffffffffffffffffffffffffff16815260200190815260200160002060008273ffffffffffffffffffffffffffffffffffffffff1673ffffffffffffffffffffffffffffffffffffffff16815260200190815260200160002060009054906101000a900460ff1615610b2d5760005b600260003373ffffffffffffffffffffffffffffffffffffffff1673ffffffffffffffffffffffffffffffffffffffff16815260200190815260200160002080549050811015610b27578173ffffffffffffffffffffffffffffffffffffffff16600260003373ffffffffffffffffffffffffffffffffffffffff1673ffffffffffffffffffffffffffffffffffffffff1681526020019081526020016000208281548110610a5357610a52611620565b5b9060005260206000200160000160009054906101000a900473ffffffffffffffffffffffffffffffffffffffff1673ffffffffffffffffffffffffffffffffffffffff1603610b14576001600260003373ffffffffffffffffffffffffffffffffffffffff1673ffffffffffffffffffffffffffffffffffffffff1681526020019081526020016000208281548110610aef57610aee611620565b5b9060005260206000200160000160146101000a81548160ff0219169083151502179055505b8080610b1f9061167e565b9150506109a1565b50610cbe565b600260003373ffffffffffffffffffffffffffffffffffffffff1673ffffffffffffffffffffffffffffffffffffffff16815260200190815260200160002060405180604001604052808373ffffffffffffffffffffffffffffffffffffffff168152602001600115158152509080600181540180825580915050600190039060005260206000200160009091909190915060008201518160000160006101000a81548173ffffffffffffffffffffffffffffffffffffffff021916908373ffffffffffffffffffffffffffffffffffffffff16021790555060208201518160000160146101000a81548160ff02191690831515021790555050506001600360003373ffffffffffffffffffffffffffffffffffffffff1673ffffffffffffffffffffffffffffffffffffffff16815260200190815260200160002060008373ffffffffffffffffffffffffffffffffffffffff1673ffffffffffffffffffffffffffffffffffffffff16815260200190815260200160002060006101000a81548160ff0219169083151502179055505b50565b6000806000600460003373ffffffffffffffffffffffffffffffffffffffff1673ffffffffffffffffffffffffffffffffffffffff16815260200190815260200160002080549050905060008103610d1c5760009150610d2c565b600181610d299190611743565b91505b819250505090565b6000604051905090565b600080fd5b600080fd5b600073ffffffffffffffffffffffffffffffffffffffff82169050919050565b6000610d7382610d48565b9050919050565b610d8381610d68565b8114610d8e57600080fd5b50565b600081359050610da081610d7a565b92915050565b600080fd5b600080fd5b6000601f19601f8301169050919050565b7f4e487b7100000000000000000000000000000000000000000000000000000000600052604160045260246000fd5b610df982610db0565b810181811067ffffffffffffffff82111715610e1857610e17610dc1565b5b80604052505050565b6000610e2b610d34565b9050610e378282610df0565b919050565b600067ffffffffffffffff821115610e5757610e56610dc1565b5b610e6082610db0565b9050602081019050919050565b82818337600083830152505050565b6000610e8f610e8a84610e3c565b610e21565b905082815260208101848484011115610eab57610eaa610dab565b5b610eb6848285610e6d565b509392505050565b600082601f830112610ed357610ed2610da6565b5b8135610ee3848260208601610e7c565b91505092915050565b60008115159050919050565b610f0181610eec565b8114610f0c57600080fd5b50565b600081359050610f1e81610ef8565b92915050565b60078110610f3157600080fd5b50565b600081359050610f4381610f24565b92915050565b600080600080600080600060e0888a031215610f6857610f67610d3e565b5b6000610f768a828b01610d91565b975050602088013567ffffffffffffffff811115610f9757610f96610d43565b5b610fa38a828b01610ebe565b965050604088013567ffffffffffffffff811115610fc457610fc3610d43565b5b610fd08a828b01610ebe565b955050606088013567ffffffffffffffff811115610ff157610ff0610d43565b5b610ffd8a828b01610ebe565b945050608061100e8a828b01610f0f565b93505060a061101f8a828b01610f34565b92505060c088013567ffffffffffffffff8111156110405761103f610d43565b5b61104c8a828b01610ebe565b91505092959891949750929550565b60006020828403121561107157611070610d3e565b5b600061107f84828501610d91565b91505092915050565b600081519050919050565b600082825260208201905092915050565b6000819050602082019050919050565b6110bd81610d68565b82525050565b6110cc81610eec565b82525050565b6040820160008201516110e860008501826110b4565b5060208201516110fb60208501826110c3565b50505050565b600061110d83836110d2565b60408301905092915050565b6000602082019050919050565b600061113182611088565b61113b8185611093565b9350611146836110a4565b8060005b8381101561117757815161115e8882611101565b975061116983611119565b92505060018101905061114a565b5085935050505092915050565b6000602082019050818103600083015261119e8184611126565b905092915050565b600081519050919050565b600082825260208201905092915050565b6000819050602082019050919050565b600081519050919050565b600082825260208201905092915050565b60005b8381101561120c5780820151818401526020810190506111f1565b60008484015250505050565b6000611223826111d2565b61122d81856111dd565b935061123d8185602086016111ee565b61124681610db0565b840191505092915050565b600061125d8383611218565b905092915050565b6000602082019050919050565b600061127d826111a6565b61128781856111b1565b935083602082028501611299856111c2565b8060005b858110156112d557848403895281516112b68582611251565b94506112c183611265565b925060208a0199505060018101905061129d565b50829750879550505050505092915050565b600060208201905081810360008301526113018184611272565b905092915050565b7f4e487b7100000000000000000000000000000000000000000000000000000000600052602160045260246000fd5b7f4e487b7100000000000000000000000000000000000000000000000000000000600052602260045260246000fd5b6000600282049050600182168061137f57607f821691505b60208210810361139257611391611338565b5b50919050565b60008190508160005260206000209050919050565b60006020601f8301049050919050565b600082821b905092915050565b6000600883026113fa7fffffffffffffffffffffffffffffffffffffffffffffffffffffffffffffffff826113bd565b61140486836113bd565b95508019841693508086168417925050509392505050565b6000819050919050565b6000819050919050565b600061144b6114466114418461141c565b611426565b61141c565b9050919050565b6000819050919050565b61146583611430565b61147961147182611452565b8484546113ca565b825550505050565b600090565b61148e611481565b61149981848461145c565b505050565b5b818110156114bd576114b2600082611486565b60018101905061149f565b5050565b601f821115611502576114d381611398565b6114dc846113ad565b810160208510156114eb578190505b6114ff6114f7856113ad565b83018261149e565b50505b505050565b600082821c905092915050565b600061152560001984600802611507565b1980831691505092915050565b600061153e8383611514565b9150826002028217905092915050565b611557826111d2565b67ffffffffffffffff8111156115705761156f610dc1565b5b61157a8254611367565b6115858282856114c1565b600060209050601f8311600181146115b857600084156115a6578287015190505b6115b08582611532565b865550611618565b601f1984166115c686611398565b60005b828110156115ee578489015182556001820191506020850194506020810190506115c9565b8683101561160b5784890151611607601f891682611514565b8355505b6001600288020188555050505b505050505050565b7f4e487b7100000000000000000000000000000000000000000000000000000000600052603260045260246000fd5b7f4e487b7100000000000000000000000000000000000000000000000000000000600052601160045260246000fd5b60006116898261141c565b91507fffffffffffffffffffffffffffffffffffffffffffffffffffffffffffffffff82036116bb576116ba61164f565b5b600182019050919050565b600082825260208201905092915050565b7f596f7520646f6e27742068617665206163636573730000000000000000000000600082015250565b600061170d6015836116c6565b9150611718826116d7565b602082019050919050565b6000602082019050818103600083015261173c81611700565b9050919050565b600061174e8261141c565b91506117598361141c565b92508282019050808211156117715761177061164f565b5b9291505056fea26469706673582212207994acefa8c3cc0bbdd60c553566c46fc5838b7b0c20a41854323a83f3aed97064736f6c63430008110033",
  "linkReferences": {},
  "deployedLinkReferences": {}
}