{
  "_format": "hh-sol-artifact-1",
  "contractName": "Upload",
  "sourceName": "contracts/Upload.sol",
  "abi": [
    {
      "inputs": [
        {
          "internalType": "address",
          "name": "_owner",
          "type": "address"
        },
        {
          "internalType": "string",
          "name": "_name",
          "type": "string"
        },
        {
          "internalType": "string",
          "name": "_description",
          "type": "string"
        },
        {
          "internalType": "string",
          "name": "_extension",
          "type": "string"
        },
        {
          "internalType": "bool",
          "name": "_isFavourite",
          "type": "bool"
        },
        {
          "internalType": "enum Upload.Tags",
          "name": "_tag",
          "type": "uint8"
        },
        {
          "internalType": "string",
          "name": "_cid",
          "type": "string"
        }
      ],
      "name": "add",
      "outputs": [],
      "stateMutability": "nonpayable",
      "type": "function"
    },
    {
      "inputs": [
        {
          "internalType": "address",
          "name": "user",
          "type": "address"
        }
      ],
      "name": "allow",
      "outputs": [],
      "stateMutability": "nonpayable",
      "type": "function"
    },
    {
      "inputs": [
        {
          "internalType": "address",
          "name": "user",
          "type": "address"
        }
      ],
      "name": "disallow",
      "outputs": [],
      "stateMutability": "nonpayable",
      "type": "function"
    },
    {
      "inputs": [
        {
          "internalType": "address",
          "name": "_user",
          "type": "address"
        }
      ],
      "name": "display",
      "outputs": [
        {
          "components": [
            {
              "internalType": "uint256",
              "name": "id",
              "type": "uint256"
            },
            {
              "internalType": "address",
              "name": "owner",
              "type": "address"
            },
            {
              "internalType": "uint256",
              "name": "dateUploaded",
              "type": "uint256"
            },
            {
              "internalType": "uint256",
              "name": "dateModified",
              "type": "uint256"
            },
            {
              "internalType": "uint256",
              "name": "dateAccessed",
              "type": "uint256"
            },
            {
              "internalType": "bool",
              "name": "isFavourite",
              "type": "bool"
            },
            {
              "internalType": "bool",
              "name": "isArchived",
              "type": "bool"
            },
            {
              "internalType": "string",
              "name": "cid",
              "type": "string"
            },
            {
              "internalType": "string",
              "name": "name",
              "type": "string"
            },
            {
              "internalType": "string",
              "name": "description",
              "type": "string"
            },
            {
              "internalType": "string",
              "name": "extension",
              "type": "string"
            },
            {
              "internalType": "enum Upload.Tags",
              "name": "tag",
              "type": "uint8"
            }
          ],
          "internalType": "struct Upload.File[]",
          "name": "",
          "type": "tuple[]"
        }
      ],
      "stateMutability": "view",
      "type": "function"
    },
    {
      "inputs": [],
      "name": "shareAccess",
      "outputs": [
        {
          "components": [
            {
              "internalType": "address",
              "name": "user",
              "type": "address"
            },
            {
              "internalType": "bool",
              "name": "access",
              "type": "bool"
            }
          ],
          "internalType": "struct Upload.Access[]",
          "name": "",
          "type": "tuple[]"
        }
      ],
      "stateMutability": "view",
      "type": "function"
    }
  ],
  "bytecode": "0x608060405234801561001057600080fd5b50611bdc806100206000396000f3fe608060405234801561001057600080fd5b50600436106100575760003560e01c8063820fb2241461005c578063a9ed9cb814610078578063bc8bef8114610094578063eb39113f146100b2578063ff9913e8146100e2575b600080fd5b61007660048036038101906100719190611208565b6100fe565b005b610092600480360381019061008d919061131a565b61033a565b005b61009c61055c565b6040516100a99190611443565b60405180910390f35b6100cc60048036038101906100c7919061131a565b610665565b6040516100d9919061174f565b60405180910390f35b6100fc60048036038101906100f7919061131a565b610b3a565b005b6000604051806101800160405280610114610f80565b81526020018973ffffffffffffffffffffffffffffffffffffffff1681526020014281526020016000815260200160008152602001851515815260200160001515815260200183815260200188815260200187815260200186815260200184600681111561018557610184611529565b5b8152509050600460003373ffffffffffffffffffffffffffffffffffffffff1673ffffffffffffffffffffffffffffffffffffffff1681526020019081526020016000208190806001815401808255809150506001900390600052602060002090600b02016000909190919091506000820151816000015560208201518160010160006101000a81548173ffffffffffffffffffffffffffffffffffffffff021916908373ffffffffffffffffffffffffffffffffffffffff16021790555060408201518160020155606082015181600301556080820151816004015560a08201518160050160006101000a81548160ff02191690831515021790555060c08201518160050160016101000a81548160ff02191690831515021790555060e08201518160060190816102b7919061197d565b506101008201518160070190816102ce919061197d565b506101208201518160080190816102e5919061197d565b506101408201518160090190816102fc919061197d565b5061016082015181600a0160006101000a81548160ff0219169083600681111561032957610328611529565b5b021790555050505050505050505050565b6000600160003373ffffffffffffffffffffffffffffffffffffffff1673ffffffffffffffffffffffffffffffffffffffff16815260200190815260200160002060008373ffffffffffffffffffffffffffffffffffffffff1673ffffffffffffffffffffffffffffffffffffffff16815260200190815260200160002060006101000a81548160ff02191690831515021790555060005b600260003373ffffffffffffffffffffffffffffffffffffffff1673ffffffffffffffffffffffffffffffffffffffff16815260200190815260200160002080549050811015610558578173ffffffffffffffffffffffffffffffffffffffff16600260003373ffffffffffffffffffffffffffffffffffffffff1673ffffffffffffffffffffffffffffffffffffffff168152602001908152602001600020828154811061048457610483611a4f565b5b9060005260206000200160000160009054906101000a900473ffffffffffffffffffffffffffffffffffffffff1673ffffffffffffffffffffffffffffffffffffffff1603610545576000600260003373ffffffffffffffffffffffffffffffffffffffff1673ffffffffffffffffffffffffffffffffffffffff16815260200190815260200160002082815481106105205761051f611a4f565b5b9060005260206000200160000160146101000a81548160ff0219169083151502179055505b808061055090611aad565b9150506103d2565b5050565b6060600260003373ffffffffffffffffffffffffffffffffffffffff1673ffffffffffffffffffffffffffffffffffffffff168152602001908152602001600020805480602002602001604051908101604052809291908181526020016000905b8282101561065c578382906000526020600020016040518060400160405290816000820160009054906101000a900473ffffffffffffffffffffffffffffffffffffffff1673ffffffffffffffffffffffffffffffffffffffff1673ffffffffffffffffffffffffffffffffffffffff1681526020016000820160149054906101000a900460ff161515151581525050815260200190600101906105bd565b50505050905090565b60603373ffffffffffffffffffffffffffffffffffffffff168273ffffffffffffffffffffffffffffffffffffffff1614806107275750600560008373ffffffffffffffffffffffffffffffffffffffff1673ffffffffffffffffffffffffffffffffffffffff16815260200190815260200160002060003373ffffffffffffffffffffffffffffffffffffffff1673ffffffffffffffffffffffffffffffffffffffff16815260200190815260200160002060009054906101000a900460ff165b610766576040517f08c379a000000000000000000000000000000000000000000000000000000000815260040161075d90611b52565b60405180910390fd5b600460008373ffffffffffffffffffffffffffffffffffffffff1673ffffffffffffffffffffffffffffffffffffffff168152602001908152602001600020805480602002602001604051908101604052809291908181526020016000905b82821015610b2f57838290600052602060002090600b020160405180610180016040529081600082015481526020016001820160009054906101000a900473ffffffffffffffffffffffffffffffffffffffff1673ffffffffffffffffffffffffffffffffffffffff1673ffffffffffffffffffffffffffffffffffffffff1681526020016002820154815260200160038201548152602001600482015481526020016005820160009054906101000a900460ff161515151581526020016005820160019054906101000a900460ff161515151581526020016006820180546108ad906117a0565b80601f01602080910402602001604051908101604052809291908181526020018280546108d9906117a0565b80156109265780601f106108fb57610100808354040283529160200191610926565b820191906000526020600020905b81548152906001019060200180831161090957829003601f168201915b5050505050815260200160078201805461093f906117a0565b80601f016020809104026020016040519081016040528092919081815260200182805461096b906117a0565b80156109b85780601f1061098d576101008083540402835291602001916109b8565b820191906000526020600020905b81548152906001019060200180831161099b57829003601f168201915b505050505081526020016008820180546109d1906117a0565b80601f01602080910402602001604051908101604052809291908181526020018280546109fd906117a0565b8015610a4a5780601f10610a1f57610100808354040283529160200191610a4a565b820191906000526020600020905b815481529060010190602001808311610a2d57829003601f168201915b50505050508152602001600982018054610a63906117a0565b80601f0160208091040260200160405190810160405280929190818152602001828054610a8f906117a0565b8015610adc5780601f10610ab157610100808354040283529160200191610adc565b820191906000526020600020905b815481529060010190602001808311610abf57829003601f168201915b50505050508152602001600a820160009054906101000a900460ff166006811115610b0a57610b09611529565b5b6006811115610b1c57610b1b611529565b5b81525050815260200190600101906107c5565b505050509050919050565b60018060003373ffffffffffffffffffffffffffffffffffffffff1673ffffffffffffffffffffffffffffffffffffffff16815260200190815260200160002060008373ffffffffffffffffffffffffffffffffffffffff1673ffffffffffffffffffffffffffffffffffffffff16815260200190815260200160002060006101000a81548160ff021916908315150217905550600360003373ffffffffffffffffffffffffffffffffffffffff1673ffffffffffffffffffffffffffffffffffffffff16815260200190815260200160002060008273ffffffffffffffffffffffffffffffffffffffff1673ffffffffffffffffffffffffffffffffffffffff16815260200190815260200160002060009054906101000a900460ff1615610dec5760005b600260003373ffffffffffffffffffffffffffffffffffffffff1673ffffffffffffffffffffffffffffffffffffffff16815260200190815260200160002080549050811015610de6578173ffffffffffffffffffffffffffffffffffffffff16600260003373ffffffffffffffffffffffffffffffffffffffff1673ffffffffffffffffffffffffffffffffffffffff1681526020019081526020016000208281548110610d1257610d11611a4f565b5b9060005260206000200160000160009054906101000a900473ffffffffffffffffffffffffffffffffffffffff1673ffffffffffffffffffffffffffffffffffffffff1603610dd3576001600260003373ffffffffffffffffffffffffffffffffffffffff1673ffffffffffffffffffffffffffffffffffffffff1681526020019081526020016000208281548110610dae57610dad611a4f565b5b9060005260206000200160000160146101000a81548160ff0219169083151502179055505b8080610dde90611aad565b915050610c60565b50610f7d565b600260003373ffffffffffffffffffffffffffffffffffffffff1673ffffffffffffffffffffffffffffffffffffffff16815260200190815260200160002060405180604001604052808373ffffffffffffffffffffffffffffffffffffffff168152602001600115158152509080600181540180825580915050600190039060005260206000200160009091909190915060008201518160000160006101000a81548173ffffffffffffffffffffffffffffffffffffffff021916908373ffffffffffffffffffffffffffffffffffffffff16021790555060208201518160000160146101000a81548160ff02191690831515021790555050506001600360003373ffffffffffffffffffffffffffffffffffffffff1673ffffffffffffffffffffffffffffffffffffffff16815260200190815260200160002060008373ffffffffffffffffffffffffffffffffffffffff1673ffffffffffffffffffffffffffffffffffffffff16815260200190815260200160002060006101000a81548160ff0219169083151502179055505b50565b6000806000600460003373ffffffffffffffffffffffffffffffffffffffff1673ffffffffffffffffffffffffffffffffffffffff16815260200190815260200160002080549050905060008103610fdb5760009150610feb565b600181610fe89190611b72565b91505b819250505090565b6000604051905090565b600080fd5b600080fd5b600073ffffffffffffffffffffffffffffffffffffffff82169050919050565b600061103282611007565b9050919050565b61104281611027565b811461104d57600080fd5b50565b60008135905061105f81611039565b92915050565b600080fd5b600080fd5b6000601f19601f8301169050919050565b7f4e487b7100000000000000000000000000000000000000000000000000000000600052604160045260246000fd5b6110b88261106f565b810181811067ffffffffffffffff821117156110d7576110d6611080565b5b80604052505050565b60006110ea610ff3565b90506110f682826110af565b919050565b600067ffffffffffffffff82111561111657611115611080565b5b61111f8261106f565b9050602081019050919050565b82818337600083830152505050565b600061114e611149846110fb565b6110e0565b90508281526020810184848401111561116a5761116961106a565b5b61117584828561112c565b509392505050565b600082601f83011261119257611191611065565b5b81356111a284826020860161113b565b91505092915050565b60008115159050919050565b6111c0816111ab565b81146111cb57600080fd5b50565b6000813590506111dd816111b7565b92915050565b600781106111f057600080fd5b50565b600081359050611202816111e3565b92915050565b600080600080600080600060e0888a03121561122757611226610ffd565b5b60006112358a828b01611050565b975050602088013567ffffffffffffffff81111561125657611255611002565b5b6112628a828b0161117d565b965050604088013567ffffffffffffffff81111561128357611282611002565b5b61128f8a828b0161117d565b955050606088013567ffffffffffffffff8111156112b0576112af611002565b5b6112bc8a828b0161117d565b94505060806112cd8a828b016111ce565b93505060a06112de8a828b016111f3565b92505060c088013567ffffffffffffffff8111156112ff576112fe611002565b5b61130b8a828b0161117d565b91505092959891949750929550565b6000602082840312156113305761132f610ffd565b5b600061133e84828501611050565b91505092915050565b600081519050919050565b600082825260208201905092915050565b6000819050602082019050919050565b61137c81611027565b82525050565b61138b816111ab565b82525050565b6040820160008201516113a76000850182611373565b5060208201516113ba6020850182611382565b50505050565b60006113cc8383611391565b60408301905092915050565b6000602082019050919050565b60006113f082611347565b6113fa8185611352565b935061140583611363565b8060005b8381101561143657815161141d88826113c0565b9750611428836113d8565b925050600181019050611409565b5085935050505092915050565b6000602082019050818103600083015261145d81846113e5565b905092915050565b600081519050919050565b600082825260208201905092915050565b6000819050602082019050919050565b6000819050919050565b6114a481611491565b82525050565b600081519050919050565b600082825260208201905092915050565b60005b838110156114e45780820151818401526020810190506114c9565b60008484015250505050565b60006114fb826114aa565b61150581856114b5565b93506115158185602086016114c6565b61151e8161106f565b840191505092915050565b7f4e487b7100000000000000000000000000000000000000000000000000000000600052602160045260246000fd5b6007811061156957611568611529565b5b50565b600081905061157a82611558565b919050565b600061158a8261156c565b9050919050565b61159a8161157f565b82525050565b6000610180830160008301516115b9600086018261149b565b5060208301516115cc6020860182611373565b5060408301516115df604086018261149b565b5060608301516115f2606086018261149b565b506080830151611605608086018261149b565b5060a083015161161860a0860182611382565b5060c083015161162b60c0860182611382565b5060e083015184820360e086015261164382826114f0565b91505061010083015184820361010086015261165f82826114f0565b91505061012083015184820361012086015261167b82826114f0565b91505061014083015184820361014086015261169782826114f0565b9150506101608301516116ae610160860182611591565b508091505092915050565b60006116c583836115a0565b905092915050565b6000602082019050919050565b60006116e582611465565b6116ef8185611470565b93508360208202850161170185611481565b8060005b8581101561173d578484038952815161171e85826116b9565b9450611729836116cd565b925060208a01995050600181019050611705565b50829750879550505050505092915050565b6000602082019050818103600083015261176981846116da565b905092915050565b7f4e487b7100000000000000000000000000000000000000000000000000000000600052602260045260246000fd5b600060028204905060018216806117b857607f821691505b6020821081036117cb576117ca611771565b5b50919050565b60008190508160005260206000209050919050565b60006020601f8301049050919050565b600082821b905092915050565b6000600883026118337fffffffffffffffffffffffffffffffffffffffffffffffffffffffffffffffff826117f6565b61183d86836117f6565b95508019841693508086168417925050509392505050565b6000819050919050565b600061187a61187561187084611491565b611855565b611491565b9050919050565b6000819050919050565b6118948361185f565b6118a86118a082611881565b848454611803565b825550505050565b600090565b6118bd6118b0565b6118c881848461188b565b505050565b5b818110156118ec576118e16000826118b5565b6001810190506118ce565b5050565b601f82111561193157611902816117d1565b61190b846117e6565b8101602085101561191a578190505b61192e611926856117e6565b8301826118cd565b50505b505050565b600082821c905092915050565b600061195460001984600802611936565b1980831691505092915050565b600061196d8383611943565b9150826002028217905092915050565b611986826114aa565b67ffffffffffffffff81111561199f5761199e611080565b5b6119a982546117a0565b6119b48282856118f0565b600060209050601f8311600181146119e757600084156119d5578287015190505b6119df8582611961565b865550611a47565b601f1984166119f5866117d1565b60005b82811015611a1d578489015182556001820191506020850194506020810190506119f8565b86831015611a3a5784890151611a36601f891682611943565b8355505b6001600288020188555050505b505050505050565b7f4e487b7100000000000000000000000000000000000000000000000000000000600052603260045260246000fd5b7f4e487b7100000000000000000000000000000000000000000000000000000000600052601160045260246000fd5b6000611ab882611491565b91507fffffffffffffffffffffffffffffffffffffffffffffffffffffffffffffffff8203611aea57611ae9611a7e565b5b600182019050919050565b600082825260208201905092915050565b7f596f7520646f6e27742068617665206163636573730000000000000000000000600082015250565b6000611b3c601583611af5565b9150611b4782611b06565b602082019050919050565b60006020820190508181036000830152611b6b81611b2f565b9050919050565b6000611b7d82611491565b9150611b8883611491565b9250828201905080821115611ba057611b9f611a7e565b5b9291505056fea2646970667358221220d19c22b351f9aefcb6c900080f225482ba4cabad30212a85489a63710d9abbc964736f6c63430008110033",
  "linkReferences": {},
  "deployedLinkReferences": {}
}