{
  "_format": "hh-sol-artifact-1",
  "contractName": "Vault",
  "sourceName": "contracts/Vault.sol",
  "abi": [
    {
      "inputs": [
        {
          "internalType": "address",
          "name": "_user",
          "type": "address"
        }
      ],
      "name": "getFiles",
      "outputs": [
        {
          "components": [
            {
              "internalType": "uint256",
              "name": "id",
              "type": "uint256"
            },
            {
              "internalType": "address",
              "name": "owner",
              "type": "address"
            },
            {
              "internalType": "uint256",
              "name": "dateUploaded",
              "type": "uint256"
            },
            {
              "internalType": "uint256",
              "name": "dateModified",
              "type": "uint256"
            },
            {
              "internalType": "uint256",
              "name": "dateAccessed",
              "type": "uint256"
            },
            {
              "internalType": "bool",
              "name": "isFavourite",
              "type": "bool"
            },
            {
              "internalType": "bool",
              "name": "isArchived",
              "type": "bool"
            },
            {
              "internalType": "string",
              "name": "cid",
              "type": "string"
            },
            {
              "internalType": "string",
              "name": "name",
              "type": "string"
            },
            {
              "internalType": "string",
              "name": "description",
              "type": "string"
            },
            {
              "internalType": "string",
              "name": "extension",
              "type": "string"
            },
            {
              "internalType": "enum Vault.Tags",
              "name": "tag",
              "type": "uint8"
            }
          ],
          "internalType": "struct Vault.File[]",
          "name": "",
          "type": "tuple[]"
        }
      ],
      "stateMutability": "view",
      "type": "function"
    },
    {
      "inputs": [
        {
          "internalType": "address",
          "name": "_user",
          "type": "address"
        }
      ],
      "name": "getFilesMarkedAsFavourite",
      "outputs": [
        {
          "components": [
            {
              "internalType": "uint256",
              "name": "id",
              "type": "uint256"
            },
            {
              "internalType": "address",
              "name": "owner",
              "type": "address"
            },
            {
              "internalType": "uint256",
              "name": "dateUploaded",
              "type": "uint256"
            },
            {
              "internalType": "uint256",
              "name": "dateModified",
              "type": "uint256"
            },
            {
              "internalType": "uint256",
              "name": "dateAccessed",
              "type": "uint256"
            },
            {
              "internalType": "bool",
              "name": "isFavourite",
              "type": "bool"
            },
            {
              "internalType": "bool",
              "name": "isArchived",
              "type": "bool"
            },
            {
              "internalType": "string",
              "name": "cid",
              "type": "string"
            },
            {
              "internalType": "string",
              "name": "name",
              "type": "string"
            },
            {
              "internalType": "string",
              "name": "description",
              "type": "string"
            },
            {
              "internalType": "string",
              "name": "extension",
              "type": "string"
            },
            {
              "internalType": "enum Vault.Tags",
              "name": "tag",
              "type": "uint8"
            }
          ],
          "internalType": "struct Vault.File[]",
          "name": "",
          "type": "tuple[]"
        }
      ],
      "stateMutability": "view",
      "type": "function"
    },
    {
      "inputs": [],
      "name": "getTags",
      "outputs": [
        {
          "internalType": "string[]",
          "name": "",
          "type": "string[]"
        }
      ],
      "stateMutability": "pure",
      "type": "function"
    },
    {
      "inputs": [],
      "name": "getUsersWithAccess",
      "outputs": [
        {
          "components": [
            {
              "internalType": "address",
              "name": "user",
              "type": "address"
            },
            {
              "internalType": "bool",
              "name": "hasAccess",
              "type": "bool"
            }
          ],
          "internalType": "struct Vault.Access[]",
          "name": "",
          "type": "tuple[]"
        }
      ],
      "stateMutability": "view",
      "type": "function"
    },
    {
      "inputs": [
        {
          "internalType": "address",
          "name": "user",
          "type": "address"
        }
      ],
      "name": "shareVault",
      "outputs": [],
      "stateMutability": "nonpayable",
      "type": "function"
    },
    {
      "inputs": [
        {
          "internalType": "address",
          "name": "user",
          "type": "address"
        }
      ],
      "name": "unshareVault",
      "outputs": [],
      "stateMutability": "nonpayable",
      "type": "function"
    },
    {
      "inputs": [
        {
          "internalType": "address",
          "name": "_owner",
          "type": "address"
        },
        {
          "internalType": "string",
          "name": "_name",
          "type": "string"
        },
        {
          "internalType": "string",
          "name": "_description",
          "type": "string"
        },
        {
          "internalType": "string",
          "name": "_extension",
          "type": "string"
        },
        {
          "internalType": "bool",
          "name": "_isFavourite",
          "type": "bool"
        },
        {
          "internalType": "enum Vault.Tags",
          "name": "_tag",
          "type": "uint8"
        },
        {
          "internalType": "string",
          "name": "_cid",
          "type": "string"
        }
      ],
      "name": "uploadFile",
      "outputs": [],
      "stateMutability": "nonpayable",
      "type": "function"
    }
  ],
  "bytecode": "0x608060405234801561001057600080fd5b506126af806100206000396000f3fe608060405234801561001057600080fd5b506004361061007d5760003560e01c8063433bf37b1161005b578063433bf37b146100d8578063995d9ab714610108578063dcc0b6e614610126578063f9e9a9d1146101425761007d565b806324aa6fcc146100825780632ee5796c1461009e5780633f130e92146100ba575b600080fd5b61009c60048036038101906100979190611a54565b610172565b005b6100b860048036038101906100b39190611a54565b6105b8565b005b6100c26107da565b6040516100cf9190611b89565b60405180910390f35b6100f260048036038101906100ed9190611a54565b6108e3565b6040516100ff9190611ea6565b60405180910390f35b610110610db7565b60405161011d9190611f8a565b60405180910390f35b610140600480360381019061013b9190612132565b6110e3565b005b61015c60048036038101906101579190611a54565b61131e565b6040516101699190611ea6565b60405180910390f35b60018060003373ffffffffffffffffffffffffffffffffffffffff1673ffffffffffffffffffffffffffffffffffffffff16815260200190815260200160002060008373ffffffffffffffffffffffffffffffffffffffff1673ffffffffffffffffffffffffffffffffffffffff16815260200190815260200160002060006101000a81548160ff021916908315150217905550600360003373ffffffffffffffffffffffffffffffffffffffff1673ffffffffffffffffffffffffffffffffffffffff16815260200190815260200160002060008273ffffffffffffffffffffffffffffffffffffffff1673ffffffffffffffffffffffffffffffffffffffff16815260200190815260200160002060009054906101000a900460ff16156104245760005b600260003373ffffffffffffffffffffffffffffffffffffffff1673ffffffffffffffffffffffffffffffffffffffff1681526020019081526020016000208054905081101561041e578173ffffffffffffffffffffffffffffffffffffffff16600260003373ffffffffffffffffffffffffffffffffffffffff1673ffffffffffffffffffffffffffffffffffffffff168152602001908152602001600020828154811061034a57610349612244565b5b9060005260206000200160000160009054906101000a900473ffffffffffffffffffffffffffffffffffffffff1673ffffffffffffffffffffffffffffffffffffffff160361040b576001600260003373ffffffffffffffffffffffffffffffffffffffff1673ffffffffffffffffffffffffffffffffffffffff16815260200190815260200160002082815481106103e6576103e5612244565b5b9060005260206000200160000160146101000a81548160ff0219169083151502179055505b8080610416906122a2565b915050610298565b506105b5565b600260003373ffffffffffffffffffffffffffffffffffffffff1673ffffffffffffffffffffffffffffffffffffffff16815260200190815260200160002060405180604001604052808373ffffffffffffffffffffffffffffffffffffffff168152602001600115158152509080600181540180825580915050600190039060005260206000200160009091909190915060008201518160000160006101000a81548173ffffffffffffffffffffffffffffffffffffffff021916908373ffffffffffffffffffffffffffffffffffffffff16021790555060208201518160000160146101000a81548160ff02191690831515021790555050506001600360003373ffffffffffffffffffffffffffffffffffffffff1673ffffffffffffffffffffffffffffffffffffffff16815260200190815260200160002060008373ffffffffffffffffffffffffffffffffffffffff1673ffffffffffffffffffffffffffffffffffffffff16815260200190815260200160002060006101000a81548160ff0219169083151502179055505b50565b6000600160003373ffffffffffffffffffffffffffffffffffffffff1673ffffffffffffffffffffffffffffffffffffffff16815260200190815260200160002060008373ffffffffffffffffffffffffffffffffffffffff1673ffffffffffffffffffffffffffffffffffffffff16815260200190815260200160002060006101000a81548160ff02191690831515021790555060005b600260003373ffffffffffffffffffffffffffffffffffffffff1673ffffffffffffffffffffffffffffffffffffffff168152602001908152602001600020805490508110156107d6578173ffffffffffffffffffffffffffffffffffffffff16600260003373ffffffffffffffffffffffffffffffffffffffff1673ffffffffffffffffffffffffffffffffffffffff168152602001908152602001600020828154811061070257610701612244565b5b9060005260206000200160000160009054906101000a900473ffffffffffffffffffffffffffffffffffffffff1673ffffffffffffffffffffffffffffffffffffffff16036107c3576000600260003373ffffffffffffffffffffffffffffffffffffffff1673ffffffffffffffffffffffffffffffffffffffff168152602001908152602001600020828154811061079e5761079d612244565b5b9060005260206000200160000160146101000a81548160ff0219169083151502179055505b80806107ce906122a2565b915050610650565b5050565b6060600260003373ffffffffffffffffffffffffffffffffffffffff1673ffffffffffffffffffffffffffffffffffffffff168152602001908152602001600020805480602002602001604051908101604052809291908181526020016000905b828210156108da578382906000526020600020016040518060400160405290816000820160009054906101000a900473ffffffffffffffffffffffffffffffffffffffff1673ffffffffffffffffffffffffffffffffffffffff1673ffffffffffffffffffffffffffffffffffffffff1681526020016000820160149054906101000a900460ff1615151515815250508152602001906001019061083b565b50505050905090565b60603373ffffffffffffffffffffffffffffffffffffffff168273ffffffffffffffffffffffffffffffffffffffff1614806109a55750600160008373ffffffffffffffffffffffffffffffffffffffff1673ffffffffffffffffffffffffffffffffffffffff16815260200190815260200160002060003373ffffffffffffffffffffffffffffffffffffffff1673ffffffffffffffffffffffffffffffffffffffff16815260200190815260200160002060009054906101000a900460ff165b6109e4576040517f08c379a00000000000000000000000000000000000000000000000000000000081526004016109db90612347565b60405180910390fd5b6000808373ffffffffffffffffffffffffffffffffffffffff1673ffffffffffffffffffffffffffffffffffffffff168152602001908152602001600020805480602002602001604051908101604052809291908181526020016000905b82821015610dac57838290600052602060002090600b020160405180610180016040529081600082015481526020016001820160009054906101000a900473ffffffffffffffffffffffffffffffffffffffff1673ffffffffffffffffffffffffffffffffffffffff1673ffffffffffffffffffffffffffffffffffffffff1681526020016002820154815260200160038201548152602001600482015481526020016005820160009054906101000a900460ff161515151581526020016005820160019054906101000a900460ff16151515158152602001600682018054610b2a90612396565b80601f0160208091040260200160405190810160405280929190818152602001828054610b5690612396565b8015610ba35780601f10610b7857610100808354040283529160200191610ba3565b820191906000526020600020905b815481529060010190602001808311610b8657829003601f168201915b50505050508152602001600782018054610bbc90612396565b80601f0160208091040260200160405190810160405280929190818152602001828054610be890612396565b8015610c355780601f10610c0a57610100808354040283529160200191610c35565b820191906000526020600020905b815481529060010190602001808311610c1857829003601f168201915b50505050508152602001600882018054610c4e90612396565b80601f0160208091040260200160405190810160405280929190818152602001828054610c7a90612396565b8015610cc75780601f10610c9c57610100808354040283529160200191610cc7565b820191906000526020600020905b815481529060010190602001808311610caa57829003601f168201915b50505050508152602001600982018054610ce090612396565b80601f0160208091040260200160405190810160405280929190818152602001828054610d0c90612396565b8015610d595780601f10610d2e57610100808354040283529160200191610d59565b820191906000526020600020905b815481529060010190602001808311610d3c57829003601f168201915b50505050508152602001600a820160009054906101000a900460ff166006811115610d8757610d86611c80565b5b6006811115610d9957610d98611c80565b5b8152505081526020019060010190610a42565b505050509050919050565b60606000600767ffffffffffffffff811115610dd657610dd5611fb6565b5b604051908082528060200260200182016040528015610e0957816020015b6060815260200190600190039081610df45790505b5090506040518060400160405280600581526020017f4f746865720000000000000000000000000000000000000000000000000000008152508160006006811115610e5757610e56611c80565b5b81518110610e6857610e67612244565b5b60200260200101819052506040518060400160405280600981526020017f456475636174696f6e00000000000000000000000000000000000000000000008152508160016006811115610ebe57610ebd611c80565b5b81518110610ecf57610ece612244565b5b60200260200101819052506040518060400160405280600681526020017f4865616c746800000000000000000000000000000000000000000000000000008152508160026006811115610f2557610f24611c80565b5b81518110610f3657610f35612244565b5b60200260200101819052506040518060400160405280600781526020017f46696e616e6365000000000000000000000000000000000000000000000000008152508160036006811115610f8c57610f8b611c80565b5b81518110610f9d57610f9c612244565b5b60200260200101819052506040518060400160405280600881526020017f427573696e6573730000000000000000000000000000000000000000000000008152508160046006811115610ff357610ff2611c80565b5b8151811061100457611003612244565b5b60200260200101819052506040518060400160405280600681526020017f46616d696c790000000000000000000000000000000000000000000000000000815250816005600681111561105a57611059611c80565b5b8151811061106b5761106a612244565b5b60200260200101819052506040518060400160405280600681526020017f52616e646f6d0000000000000000000000000000000000000000000000000000815250816006808111156110c0576110bf611c80565b5b815181106110d1576110d0612244565b5b60200260200101819052508091505090565b60006040518061018001604052806110f96118e3565b81526020018973ffffffffffffffffffffffffffffffffffffffff1681526020014281526020016000815260200160008152602001851515815260200160001515815260200183815260200188815260200187815260200186815260200184600681111561116a57611169611c80565b5b81525090506000803373ffffffffffffffffffffffffffffffffffffffff1673ffffffffffffffffffffffffffffffffffffffff1681526020019081526020016000208190806001815401808255809150506001900390600052602060002090600b02016000909190919091506000820151816000015560208201518160010160006101000a81548173ffffffffffffffffffffffffffffffffffffffff021916908373ffffffffffffffffffffffffffffffffffffffff16021790555060408201518160020155606082015181600301556080820151816004015560a08201518160050160006101000a81548160ff02191690831515021790555060c08201518160050160016101000a81548160ff02191690831515021790555060e082015181600601908161129b9190612573565b506101008201518160070190816112b29190612573565b506101208201518160080190816112c99190612573565b506101408201518160090190816112e09190612573565b5061016082015181600a0160006101000a81548160ff0219169083600681111561130d5761130c611c80565b5b021790555050505050505050505050565b60603373ffffffffffffffffffffffffffffffffffffffff168273ffffffffffffffffffffffffffffffffffffffff1614806113e05750600160008373ffffffffffffffffffffffffffffffffffffffff1673ffffffffffffffffffffffffffffffffffffffff16815260200190815260200160002060003373ffffffffffffffffffffffffffffffffffffffff1673ffffffffffffffffffffffffffffffffffffffff16815260200190815260200160002060009054906101000a900460ff165b61141f576040517f08c379a000000000000000000000000000000000000000000000000000000000815260040161141690612347565b60405180910390fd5b60008060008473ffffffffffffffffffffffffffffffffffffffff1673ffffffffffffffffffffffffffffffffffffffff168152602001908152602001600020805480602002602001604051908101604052809291908181526020016000905b828210156117e957838290600052602060002090600b020160405180610180016040529081600082015481526020016001820160009054906101000a900473ffffffffffffffffffffffffffffffffffffffff1673ffffffffffffffffffffffffffffffffffffffff1673ffffffffffffffffffffffffffffffffffffffff1681526020016002820154815260200160038201548152602001600482015481526020016005820160009054906101000a900460ff161515151581526020016005820160019054906101000a900460ff1615151515815260200160068201805461156790612396565b80601f016020809104026020016040519081016040528092919081815260200182805461159390612396565b80156115e05780601f106115b5576101008083540402835291602001916115e0565b820191906000526020600020905b8154815290600101906020018083116115c357829003601f168201915b505050505081526020016007820180546115f990612396565b80601f016020809104026020016040519081016040528092919081815260200182805461162590612396565b80156116725780601f1061164757610100808354040283529160200191611672565b820191906000526020600020905b81548152906001019060200180831161165557829003601f168201915b5050505050815260200160088201805461168b90612396565b80601f01602080910402602001604051908101604052809291908181526020018280546116b790612396565b80156117045780601f106116d957610100808354040283529160200191611704565b820191906000526020600020905b8154815290600101906020018083116116e757829003601f168201915b5050505050815260200160098201805461171d90612396565b80601f016020809104026020016040519081016040528092919081815260200182805461174990612396565b80156117965780601f1061176b57610100808354040283529160200191611796565b820191906000526020600020905b81548152906001019060200180831161177957829003601f168201915b50505050508152602001600a820160009054906101000a900460ff1660068111156117c4576117c3611c80565b5b60068111156117d6576117d5611c80565b5b815250508152602001906001019061147f565b5050505090506000815167ffffffffffffffff81111561180c5761180b611fb6565b5b60405190808252806020026020018201604052801561184557816020015b611832611955565b81526020019060019003908161182a5790505b5090506000805b83518110156118d45783818151811061186857611867612244565b5b602002602001015160a00151156118c15783818151811061188c5761188b612244565b5b60200260200101518383815181106118a7576118a6612244565b5b602002602001018190525081806118bd906122a2565b9250505b80806118cc906122a2565b91505061184c565b50808252819350505050919050565b60008060008060003373ffffffffffffffffffffffffffffffffffffffff1673ffffffffffffffffffffffffffffffffffffffff1681526020019081526020016000208054905090506000810361193d576000915061194d565b60018161194a9190612645565b91505b819250505090565b60405180610180016040528060008152602001600073ffffffffffffffffffffffffffffffffffffffff16815260200160008152602001600081526020016000815260200160001515815260200160001515815260200160608152602001606081526020016060815260200160608152602001600060068111156119dc576119db611c80565b5b81525090565b6000604051905090565b600080fd5b600080fd5b600073ffffffffffffffffffffffffffffffffffffffff82169050919050565b6000611a21826119f6565b9050919050565b611a3181611a16565b8114611a3c57600080fd5b50565b600081359050611a4e81611a28565b92915050565b600060208284031215611a6a57611a696119ec565b5b6000611a7884828501611a3f565b91505092915050565b600081519050919050565b600082825260208201905092915050565b6000819050602082019050919050565b611ab681611a16565b82525050565b60008115159050919050565b611ad181611abc565b82525050565b604082016000820151611aed6000850182611aad565b506020820151611b006020850182611ac8565b50505050565b6000611b128383611ad7565b60408301905092915050565b6000602082019050919050565b6000611b3682611a81565b611b408185611a8c565b9350611b4b83611a9d565b8060005b83811015611b7c578151611b638882611b06565b9750611b6e83611b1e565b925050600181019050611b4f565b5085935050505092915050565b60006020820190508181036000830152611ba38184611b2b565b905092915050565b600081519050919050565b600082825260208201905092915050565b6000819050602082019050919050565b6000819050919050565b611bea81611bd7565b82525050565b600081519050919050565b600082825260208201905092915050565b60005b83811015611c2a578082015181840152602081019050611c0f565b60008484015250505050565b6000601f19601f8301169050919050565b6000611c5282611bf0565b611c5c8185611bfb565b9350611c6c818560208601611c0c565b611c7581611c36565b840191505092915050565b7f4e487b7100000000000000000000000000000000000000000000000000000000600052602160045260246000fd5b60078110611cc057611cbf611c80565b5b50565b6000819050611cd182611caf565b919050565b6000611ce182611cc3565b9050919050565b611cf181611cd6565b82525050565b600061018083016000830151611d106000860182611be1565b506020830151611d236020860182611aad565b506040830151611d366040860182611be1565b506060830151611d496060860182611be1565b506080830151611d5c6080860182611be1565b5060a0830151611d6f60a0860182611ac8565b5060c0830151611d8260c0860182611ac8565b5060e083015184820360e0860152611d9a8282611c47565b915050610100830151848203610100860152611db68282611c47565b915050610120830151848203610120860152611dd28282611c47565b915050610140830151848203610140860152611dee8282611c47565b915050610160830151611e05610160860182611ce8565b508091505092915050565b6000611e1c8383611cf7565b905092915050565b6000602082019050919050565b6000611e3c82611bab565b611e468185611bb6565b935083602082028501611e5885611bc7565b8060005b85811015611e945784840389528151611e758582611e10565b9450611e8083611e24565b925060208a01995050600181019050611e5c565b50829750879550505050505092915050565b60006020820190508181036000830152611ec08184611e31565b905092915050565b600081519050919050565b600082825260208201905092915050565b6000819050602082019050919050565b6000611f008383611c47565b905092915050565b6000602082019050919050565b6000611f2082611ec8565b611f2a8185611ed3565b935083602082028501611f3c85611ee4565b8060005b85811015611f785784840389528151611f598582611ef4565b9450611f6483611f08565b925060208a01995050600181019050611f40565b50829750879550505050505092915050565b60006020820190508181036000830152611fa48184611f15565b905092915050565b600080fd5b600080fd5b7f4e487b7100000000000000000000000000000000000000000000000000000000600052604160045260246000fd5b611fee82611c36565b810181811067ffffffffffffffff8211171561200d5761200c611fb6565b5b80604052505050565b60006120206119e2565b905061202c8282611fe5565b919050565b600067ffffffffffffffff82111561204c5761204b611fb6565b5b61205582611c36565b9050602081019050919050565b82818337600083830152505050565b600061208461207f84612031565b612016565b9050828152602081018484840111156120a05761209f611fb1565b5b6120ab848285612062565b509392505050565b600082601f8301126120c8576120c7611fac565b5b81356120d8848260208601612071565b91505092915050565b6120ea81611abc565b81146120f557600080fd5b50565b600081359050612107816120e1565b92915050565b6007811061211a57600080fd5b50565b60008135905061212c8161210d565b92915050565b600080600080600080600060e0888a031215612151576121506119ec565b5b600061215f8a828b01611a3f565b975050602088013567ffffffffffffffff8111156121805761217f6119f1565b5b61218c8a828b016120b3565b965050604088013567ffffffffffffffff8111156121ad576121ac6119f1565b5b6121b98a828b016120b3565b955050606088013567ffffffffffffffff8111156121da576121d96119f1565b5b6121e68a828b016120b3565b94505060806121f78a828b016120f8565b93505060a06122088a828b0161211d565b92505060c088013567ffffffffffffffff811115612229576122286119f1565b5b6122358a828b016120b3565b91505092959891949750929550565b7f4e487b7100000000000000000000000000000000000000000000000000000000600052603260045260246000fd5b7f4e487b7100000000000000000000000000000000000000000000000000000000600052601160045260246000fd5b60006122ad82611bd7565b91507fffffffffffffffffffffffffffffffffffffffffffffffffffffffffffffffff82036122df576122de612273565b5b600182019050919050565b600082825260208201905092915050565b7f596f7520646f6e27742068617665206163636573730000000000000000000000600082015250565b60006123316015836122ea565b915061233c826122fb565b602082019050919050565b6000602082019050818103600083015261236081612324565b9050919050565b7f4e487b7100000000000000000000000000000000000000000000000000000000600052602260045260246000fd5b600060028204905060018216806123ae57607f821691505b6020821081036123c1576123c0612367565b5b50919050565b60008190508160005260206000209050919050565b60006020601f8301049050919050565b600082821b905092915050565b6000600883026124297fffffffffffffffffffffffffffffffffffffffffffffffffffffffffffffffff826123ec565b61243386836123ec565b95508019841693508086168417925050509392505050565b6000819050919050565b600061247061246b61246684611bd7565b61244b565b611bd7565b9050919050565b6000819050919050565b61248a83612455565b61249e61249682612477565b8484546123f9565b825550505050565b600090565b6124b36124a6565b6124be818484612481565b505050565b5b818110156124e2576124d76000826124ab565b6001810190506124c4565b5050565b601f821115612527576124f8816123c7565b612501846123dc565b81016020851015612510578190505b61252461251c856123dc565b8301826124c3565b50505b505050565b600082821c905092915050565b600061254a6000198460080261252c565b1980831691505092915050565b60006125638383612539565b9150826002028217905092915050565b61257c82611bf0565b67ffffffffffffffff81111561259557612594611fb6565b5b61259f8254612396565b6125aa8282856124e6565b600060209050601f8311600181146125dd57600084156125cb578287015190505b6125d58582612557565b86555061263d565b601f1984166125eb866123c7565b60005b82811015612613578489015182556001820191506020850194506020810190506125ee565b86831015612630578489015161262c601f891682612539565b8355505b6001600288020188555050505b505050505050565b600061265082611bd7565b915061265b83611bd7565b925082820190508082111561267357612672612273565b5b9291505056fea2646970667358221220f0019be4ae3454e831a7df2d28b29167da988498388f31f669d7f619a0fbc64864736f6c63430008110033",
  "linkReferences": {},
  "deployedLinkReferences": {}
}