{
  "_format": "hh-sol-artifact-1",
  "contractName": "Vault",
  "sourceName": "contracts/Vault.sol",
  "abi": [
    {
      "inputs": [
        {
          "internalType": "address",
          "name": "_user",
          "type": "address"
        }
      ],
      "name": "getFiles",
      "outputs": [
        {
          "components": [
            {
              "internalType": "uint256",
              "name": "id",
              "type": "uint256"
            },
            {
              "internalType": "address",
              "name": "owner",
              "type": "address"
            },
            {
              "internalType": "uint256",
              "name": "dateUploaded",
              "type": "uint256"
            },
            {
              "internalType": "uint256",
              "name": "dateModified",
              "type": "uint256"
            },
            {
              "internalType": "uint256",
              "name": "dateAccessed",
              "type": "uint256"
            },
            {
              "internalType": "bool",
              "name": "isFavourite",
              "type": "bool"
            },
            {
              "internalType": "bool",
              "name": "isArchived",
              "type": "bool"
            },
            {
              "internalType": "string",
              "name": "cid",
              "type": "string"
            },
            {
              "internalType": "string",
              "name": "name",
              "type": "string"
            },
            {
              "internalType": "string",
              "name": "description",
              "type": "string"
            },
            {
              "internalType": "string",
              "name": "extension",
              "type": "string"
            },
            {
              "internalType": "enum Vault.Tags",
              "name": "tag",
              "type": "uint8"
            }
          ],
          "internalType": "struct Vault.File[]",
          "name": "",
          "type": "tuple[]"
        }
      ],
      "stateMutability": "view",
      "type": "function"
    },
    {
      "inputs": [],
      "name": "getUsersWithAccess",
      "outputs": [
        {
          "components": [
            {
              "internalType": "address",
              "name": "user",
              "type": "address"
            },
            {
              "internalType": "bool",
              "name": "hasAccess",
              "type": "bool"
            }
          ],
          "internalType": "struct Vault.Access[]",
          "name": "",
          "type": "tuple[]"
        }
      ],
      "stateMutability": "view",
      "type": "function"
    },
    {
      "inputs": [
        {
          "internalType": "address",
          "name": "user",
          "type": "address"
        }
      ],
      "name": "shareVault",
      "outputs": [],
      "stateMutability": "nonpayable",
      "type": "function"
    },
    {
      "inputs": [
        {
          "internalType": "address",
          "name": "user",
          "type": "address"
        }
      ],
      "name": "unshareVault",
      "outputs": [],
      "stateMutability": "nonpayable",
      "type": "function"
    },
    {
      "inputs": [
        {
          "internalType": "address",
          "name": "_owner",
          "type": "address"
        },
        {
          "internalType": "string",
          "name": "_name",
          "type": "string"
        },
        {
          "internalType": "string",
          "name": "_description",
          "type": "string"
        },
        {
          "internalType": "string",
          "name": "_extension",
          "type": "string"
        },
        {
          "internalType": "bool",
          "name": "_isFavourite",
          "type": "bool"
        },
        {
          "internalType": "enum Vault.Tags",
          "name": "_tag",
          "type": "uint8"
        },
        {
          "internalType": "string",
          "name": "_cid",
          "type": "string"
        }
      ],
      "name": "uploadFile",
      "outputs": [],
      "stateMutability": "nonpayable",
      "type": "function"
    }
  ],
  "bytecode": "0x608060405234801561001057600080fd5b50611bd9806100206000396000f3fe608060405234801561001057600080fd5b50600436106100575760003560e01c806324aa6fcc1461005c5780632ee5796c146100785780633f130e9214610094578063433bf37b146100b2578063dcc0b6e6146100e2575b600080fd5b61007660048036038101906100719190611062565b6100fe565b005b610092600480360381019061008d9190611062565b610544565b005b61009c610766565b6040516100a99190611197565b60405180910390f35b6100cc60048036038101906100c79190611062565b61086f565b6040516100d991906114b4565b60405180910390f35b6100fc60048036038101906100f7919061165c565b610d43565b005b60018060003373ffffffffffffffffffffffffffffffffffffffff1673ffffffffffffffffffffffffffffffffffffffff16815260200190815260200160002060008373ffffffffffffffffffffffffffffffffffffffff1673ffffffffffffffffffffffffffffffffffffffff16815260200190815260200160002060006101000a81548160ff021916908315150217905550600360003373ffffffffffffffffffffffffffffffffffffffff1673ffffffffffffffffffffffffffffffffffffffff16815260200190815260200160002060008273ffffffffffffffffffffffffffffffffffffffff1673ffffffffffffffffffffffffffffffffffffffff16815260200190815260200160002060009054906101000a900460ff16156103b05760005b600260003373ffffffffffffffffffffffffffffffffffffffff1673ffffffffffffffffffffffffffffffffffffffff168152602001908152602001600020805490508110156103aa578173ffffffffffffffffffffffffffffffffffffffff16600260003373ffffffffffffffffffffffffffffffffffffffff1673ffffffffffffffffffffffffffffffffffffffff16815260200190815260200160002082815481106102d6576102d561176e565b5b9060005260206000200160000160009054906101000a900473ffffffffffffffffffffffffffffffffffffffff1673ffffffffffffffffffffffffffffffffffffffff1603610397576001600260003373ffffffffffffffffffffffffffffffffffffffff1673ffffffffffffffffffffffffffffffffffffffff16815260200190815260200160002082815481106103725761037161176e565b5b9060005260206000200160000160146101000a81548160ff0219169083151502179055505b80806103a2906117cc565b915050610224565b50610541565b600260003373ffffffffffffffffffffffffffffffffffffffff1673ffffffffffffffffffffffffffffffffffffffff16815260200190815260200160002060405180604001604052808373ffffffffffffffffffffffffffffffffffffffff168152602001600115158152509080600181540180825580915050600190039060005260206000200160009091909190915060008201518160000160006101000a81548173ffffffffffffffffffffffffffffffffffffffff021916908373ffffffffffffffffffffffffffffffffffffffff16021790555060208201518160000160146101000a81548160ff02191690831515021790555050506001600360003373ffffffffffffffffffffffffffffffffffffffff1673ffffffffffffffffffffffffffffffffffffffff16815260200190815260200160002060008373ffffffffffffffffffffffffffffffffffffffff1673ffffffffffffffffffffffffffffffffffffffff16815260200190815260200160002060006101000a81548160ff0219169083151502179055505b50565b6000600160003373ffffffffffffffffffffffffffffffffffffffff1673ffffffffffffffffffffffffffffffffffffffff16815260200190815260200160002060008373ffffffffffffffffffffffffffffffffffffffff1673ffffffffffffffffffffffffffffffffffffffff16815260200190815260200160002060006101000a81548160ff02191690831515021790555060005b600260003373ffffffffffffffffffffffffffffffffffffffff1673ffffffffffffffffffffffffffffffffffffffff16815260200190815260200160002080549050811015610762578173ffffffffffffffffffffffffffffffffffffffff16600260003373ffffffffffffffffffffffffffffffffffffffff1673ffffffffffffffffffffffffffffffffffffffff168152602001908152602001600020828154811061068e5761068d61176e565b5b9060005260206000200160000160009054906101000a900473ffffffffffffffffffffffffffffffffffffffff1673ffffffffffffffffffffffffffffffffffffffff160361074f576000600260003373ffffffffffffffffffffffffffffffffffffffff1673ffffffffffffffffffffffffffffffffffffffff168152602001908152602001600020828154811061072a5761072961176e565b5b9060005260206000200160000160146101000a81548160ff0219169083151502179055505b808061075a906117cc565b9150506105dc565b5050565b6060600260003373ffffffffffffffffffffffffffffffffffffffff1673ffffffffffffffffffffffffffffffffffffffff168152602001908152602001600020805480602002602001604051908101604052809291908181526020016000905b82821015610866578382906000526020600020016040518060400160405290816000820160009054906101000a900473ffffffffffffffffffffffffffffffffffffffff1673ffffffffffffffffffffffffffffffffffffffff1673ffffffffffffffffffffffffffffffffffffffff1681526020016000820160149054906101000a900460ff161515151581525050815260200190600101906107c7565b50505050905090565b60603373ffffffffffffffffffffffffffffffffffffffff168273ffffffffffffffffffffffffffffffffffffffff1614806109315750600160008373ffffffffffffffffffffffffffffffffffffffff1673ffffffffffffffffffffffffffffffffffffffff16815260200190815260200160002060003373ffffffffffffffffffffffffffffffffffffffff1673ffffffffffffffffffffffffffffffffffffffff16815260200190815260200160002060009054906101000a900460ff165b610970576040517f08c379a000000000000000000000000000000000000000000000000000000000815260040161096790611871565b60405180910390fd5b6000808373ffffffffffffffffffffffffffffffffffffffff1673ffffffffffffffffffffffffffffffffffffffff168152602001908152602001600020805480602002602001604051908101604052809291908181526020016000905b82821015610d3857838290600052602060002090600b020160405180610180016040529081600082015481526020016001820160009054906101000a900473ffffffffffffffffffffffffffffffffffffffff1673ffffffffffffffffffffffffffffffffffffffff1673ffffffffffffffffffffffffffffffffffffffff1681526020016002820154815260200160038201548152602001600482015481526020016005820160009054906101000a900460ff161515151581526020016005820160019054906101000a900460ff16151515158152602001600682018054610ab6906118c0565b80601f0160208091040260200160405190810160405280929190818152602001828054610ae2906118c0565b8015610b2f5780601f10610b0457610100808354040283529160200191610b2f565b820191906000526020600020905b815481529060010190602001808311610b1257829003601f168201915b50505050508152602001600782018054610b48906118c0565b80601f0160208091040260200160405190810160405280929190818152602001828054610b74906118c0565b8015610bc15780601f10610b9657610100808354040283529160200191610bc1565b820191906000526020600020905b815481529060010190602001808311610ba457829003601f168201915b50505050508152602001600882018054610bda906118c0565b80601f0160208091040260200160405190810160405280929190818152602001828054610c06906118c0565b8015610c535780601f10610c2857610100808354040283529160200191610c53565b820191906000526020600020905b815481529060010190602001808311610c3657829003601f168201915b50505050508152602001600982018054610c6c906118c0565b80601f0160208091040260200160405190810160405280929190818152602001828054610c98906118c0565b8015610ce55780601f10610cba57610100808354040283529160200191610ce5565b820191906000526020600020905b815481529060010190602001808311610cc857829003601f168201915b50505050508152602001600a820160009054906101000a900460ff166006811115610d1357610d1261128e565b5b6006811115610d2557610d2461128e565b5b81525050815260200190600101906109ce565b505050509050919050565b6000604051806101800160405280610d59610f7e565b81526020018973ffffffffffffffffffffffffffffffffffffffff16815260200142815260200160008152602001600081526020018515158152602001600015158152602001838152602001888152602001878152602001868152602001846006811115610dca57610dc961128e565b5b81525090506000803373ffffffffffffffffffffffffffffffffffffffff1673ffffffffffffffffffffffffffffffffffffffff1681526020019081526020016000208190806001815401808255809150506001900390600052602060002090600b02016000909190919091506000820151816000015560208201518160010160006101000a81548173ffffffffffffffffffffffffffffffffffffffff021916908373ffffffffffffffffffffffffffffffffffffffff16021790555060408201518160020155606082015181600301556080820151816004015560a08201518160050160006101000a81548160ff02191690831515021790555060c08201518160050160016101000a81548160ff02191690831515021790555060e0820151816006019081610efb9190611a9d565b50610100820151816007019081610f129190611a9d565b50610120820151816008019081610f299190611a9d565b50610140820151816009019081610f409190611a9d565b5061016082015181600a0160006101000a81548160ff02191690836006811115610f6d57610f6c61128e565b5b021790555050505050505050505050565b60008060008060003373ffffffffffffffffffffffffffffffffffffffff1673ffffffffffffffffffffffffffffffffffffffff16815260200190815260200160002080549050905060008103610fd85760009150610fe8565b600181610fe59190611b6f565b91505b819250505090565b6000604051905090565b600080fd5b600080fd5b600073ffffffffffffffffffffffffffffffffffffffff82169050919050565b600061102f82611004565b9050919050565b61103f81611024565b811461104a57600080fd5b50565b60008135905061105c81611036565b92915050565b60006020828403121561107857611077610ffa565b5b60006110868482850161104d565b91505092915050565b600081519050919050565b600082825260208201905092915050565b6000819050602082019050919050565b6110c481611024565b82525050565b60008115159050919050565b6110df816110ca565b82525050565b6040820160008201516110fb60008501826110bb565b50602082015161110e60208501826110d6565b50505050565b600061112083836110e5565b60408301905092915050565b6000602082019050919050565b60006111448261108f565b61114e818561109a565b9350611159836110ab565b8060005b8381101561118a5781516111718882611114565b975061117c8361112c565b92505060018101905061115d565b5085935050505092915050565b600060208201905081810360008301526111b18184611139565b905092915050565b600081519050919050565b600082825260208201905092915050565b6000819050602082019050919050565b6000819050919050565b6111f8816111e5565b82525050565b600081519050919050565b600082825260208201905092915050565b60005b8381101561123857808201518184015260208101905061121d565b60008484015250505050565b6000601f19601f8301169050919050565b6000611260826111fe565b61126a8185611209565b935061127a81856020860161121a565b61128381611244565b840191505092915050565b7f4e487b7100000000000000000000000000000000000000000000000000000000600052602160045260246000fd5b600781106112ce576112cd61128e565b5b50565b60008190506112df826112bd565b919050565b60006112ef826112d1565b9050919050565b6112ff816112e4565b82525050565b60006101808301600083015161131e60008601826111ef565b50602083015161133160208601826110bb565b50604083015161134460408601826111ef565b50606083015161135760608601826111ef565b50608083015161136a60808601826111ef565b5060a083015161137d60a08601826110d6565b5060c083015161139060c08601826110d6565b5060e083015184820360e08601526113a88282611255565b9150506101008301518482036101008601526113c48282611255565b9150506101208301518482036101208601526113e08282611255565b9150506101408301518482036101408601526113fc8282611255565b9150506101608301516114136101608601826112f6565b508091505092915050565b600061142a8383611305565b905092915050565b6000602082019050919050565b600061144a826111b9565b61145481856111c4565b935083602082028501611466856111d5565b8060005b858110156114a25784840389528151611483858261141e565b945061148e83611432565b925060208a0199505060018101905061146a565b50829750879550505050505092915050565b600060208201905081810360008301526114ce818461143f565b905092915050565b600080fd5b600080fd5b7f4e487b7100000000000000000000000000000000000000000000000000000000600052604160045260246000fd5b61151882611244565b810181811067ffffffffffffffff82111715611537576115366114e0565b5b80604052505050565b600061154a610ff0565b9050611556828261150f565b919050565b600067ffffffffffffffff821115611576576115756114e0565b5b61157f82611244565b9050602081019050919050565b82818337600083830152505050565b60006115ae6115a98461155b565b611540565b9050828152602081018484840111156115ca576115c96114db565b5b6115d584828561158c565b509392505050565b600082601f8301126115f2576115f16114d6565b5b813561160284826020860161159b565b91505092915050565b611614816110ca565b811461161f57600080fd5b50565b6000813590506116318161160b565b92915050565b6007811061164457600080fd5b50565b60008135905061165681611637565b92915050565b600080600080600080600060e0888a03121561167b5761167a610ffa565b5b60006116898a828b0161104d565b975050602088013567ffffffffffffffff8111156116aa576116a9610fff565b5b6116b68a828b016115dd565b965050604088013567ffffffffffffffff8111156116d7576116d6610fff565b5b6116e38a828b016115dd565b955050606088013567ffffffffffffffff81111561170457611703610fff565b5b6117108a828b016115dd565b94505060806117218a828b01611622565b93505060a06117328a828b01611647565b92505060c088013567ffffffffffffffff81111561175357611752610fff565b5b61175f8a828b016115dd565b91505092959891949750929550565b7f4e487b7100000000000000000000000000000000000000000000000000000000600052603260045260246000fd5b7f4e487b7100000000000000000000000000000000000000000000000000000000600052601160045260246000fd5b60006117d7826111e5565b91507fffffffffffffffffffffffffffffffffffffffffffffffffffffffffffffffff82036118095761180861179d565b5b600182019050919050565b600082825260208201905092915050565b7f596f7520646f6e27742068617665206163636573730000000000000000000000600082015250565b600061185b601583611814565b915061186682611825565b602082019050919050565b6000602082019050818103600083015261188a8161184e565b9050919050565b7f4e487b7100000000000000000000000000000000000000000000000000000000600052602260045260246000fd5b600060028204905060018216806118d857607f821691505b6020821081036118eb576118ea611891565b5b50919050565b60008190508160005260206000209050919050565b60006020601f8301049050919050565b600082821b905092915050565b6000600883026119537fffffffffffffffffffffffffffffffffffffffffffffffffffffffffffffffff82611916565b61195d8683611916565b95508019841693508086168417925050509392505050565b6000819050919050565b600061199a611995611990846111e5565b611975565b6111e5565b9050919050565b6000819050919050565b6119b48361197f565b6119c86119c0826119a1565b848454611923565b825550505050565b600090565b6119dd6119d0565b6119e88184846119ab565b505050565b5b81811015611a0c57611a016000826119d5565b6001810190506119ee565b5050565b601f821115611a5157611a22816118f1565b611a2b84611906565b81016020851015611a3a578190505b611a4e611a4685611906565b8301826119ed565b50505b505050565b600082821c905092915050565b6000611a7460001984600802611a56565b1980831691505092915050565b6000611a8d8383611a63565b9150826002028217905092915050565b611aa6826111fe565b67ffffffffffffffff811115611abf57611abe6114e0565b5b611ac982546118c0565b611ad4828285611a10565b600060209050601f831160018114611b075760008415611af5578287015190505b611aff8582611a81565b865550611b67565b601f198416611b15866118f1565b60005b82811015611b3d57848901518255600182019150602085019450602081019050611b18565b86831015611b5a5784890151611b56601f891682611a63565b8355505b6001600288020188555050505b505050505050565b6000611b7a826111e5565b9150611b85836111e5565b9250828201905080821115611b9d57611b9c61179d565b5b9291505056fea26469706673582212201bc8a9c318cda494dae7d5a1f06d86764ab0b8163dd7ac74a55edd81d2a14a4e64736f6c63430008110033",
  "linkReferences": {},
  "deployedLinkReferences": {}
}