{
  "_format": "hh-sol-artifact-1",
  "contractName": "Vault",
  "sourceName": "contracts/Vault.sol",
  "abi": [
    {
      "inputs": [
        {
          "internalType": "address",
          "name": "_user",
          "type": "address"
        }
      ],
      "name": "getFiles",
      "outputs": [
        {
          "components": [
            {
              "internalType": "uint256",
              "name": "id",
              "type": "uint256"
            },
            {
              "internalType": "address",
              "name": "owner",
              "type": "address"
            },
            {
              "internalType": "uint256",
              "name": "dateUploaded",
              "type": "uint256"
            },
            {
              "internalType": "uint256",
              "name": "dateModified",
              "type": "uint256"
            },
            {
              "internalType": "uint256",
              "name": "dateAccessed",
              "type": "uint256"
            },
            {
              "internalType": "bool",
              "name": "isFavourite",
              "type": "bool"
            },
            {
              "internalType": "bool",
              "name": "isArchived",
              "type": "bool"
            },
            {
              "internalType": "string",
              "name": "cid",
              "type": "string"
            },
            {
              "internalType": "string",
              "name": "name",
              "type": "string"
            },
            {
              "internalType": "string",
              "name": "description",
              "type": "string"
            },
            {
              "internalType": "string",
              "name": "extension",
              "type": "string"
            },
            {
              "internalType": "enum Vault.Tags",
              "name": "tag",
              "type": "uint8"
            }
          ],
          "internalType": "struct Vault.File[]",
          "name": "",
          "type": "tuple[]"
        }
      ],
      "stateMutability": "view",
      "type": "function"
    },
    {
      "inputs": [],
      "name": "getTags",
      "outputs": [
        {
          "internalType": "string[]",
          "name": "",
          "type": "string[]"
        }
      ],
      "stateMutability": "pure",
      "type": "function"
    },
    {
      "inputs": [],
      "name": "getUsersWithAccess",
      "outputs": [
        {
          "components": [
            {
              "internalType": "address",
              "name": "user",
              "type": "address"
            },
            {
              "internalType": "bool",
              "name": "hasAccess",
              "type": "bool"
            }
          ],
          "internalType": "struct Vault.Access[]",
          "name": "",
          "type": "tuple[]"
        }
      ],
      "stateMutability": "view",
      "type": "function"
    },
    {
      "inputs": [
        {
          "internalType": "address",
          "name": "user",
          "type": "address"
        }
      ],
      "name": "shareVault",
      "outputs": [],
      "stateMutability": "nonpayable",
      "type": "function"
    },
    {
      "inputs": [
        {
          "internalType": "address",
          "name": "user",
          "type": "address"
        }
      ],
      "name": "unshareVault",
      "outputs": [],
      "stateMutability": "nonpayable",
      "type": "function"
    },
    {
      "inputs": [
        {
          "internalType": "address",
          "name": "_owner",
          "type": "address"
        },
        {
          "internalType": "string",
          "name": "_name",
          "type": "string"
        },
        {
          "internalType": "string",
          "name": "_description",
          "type": "string"
        },
        {
          "internalType": "string",
          "name": "_extension",
          "type": "string"
        },
        {
          "internalType": "bool",
          "name": "_isFavourite",
          "type": "bool"
        },
        {
          "internalType": "enum Vault.Tags",
          "name": "_tag",
          "type": "uint8"
        },
        {
          "internalType": "string",
          "name": "_cid",
          "type": "string"
        }
      ],
      "name": "uploadFile",
      "outputs": [],
      "stateMutability": "nonpayable",
      "type": "function"
    }
  ],
  "bytecode": "0x608060405234801561001057600080fd5b50612012806100206000396000f3fe608060405234801561001057600080fd5b50600436106100625760003560e01c806324aa6fcc146100675780632ee5796c146100835780633f130e921461009f578063433bf37b146100bd578063995d9ab7146100ed578063dcc0b6e61461010b575b600080fd5b610081600480360381019061007c91906113b7565b610127565b005b61009d600480360381019061009891906113b7565b61056d565b005b6100a761078f565b6040516100b491906114ec565b60405180910390f35b6100d760048036038101906100d291906113b7565b610898565b6040516100e49190611809565b60405180910390f35b6100f5610d6c565b60405161010291906118ed565b60405180910390f35b61012560048036038101906101209190611a95565b611098565b005b60018060003373ffffffffffffffffffffffffffffffffffffffff1673ffffffffffffffffffffffffffffffffffffffff16815260200190815260200160002060008373ffffffffffffffffffffffffffffffffffffffff1673ffffffffffffffffffffffffffffffffffffffff16815260200190815260200160002060006101000a81548160ff021916908315150217905550600360003373ffffffffffffffffffffffffffffffffffffffff1673ffffffffffffffffffffffffffffffffffffffff16815260200190815260200160002060008273ffffffffffffffffffffffffffffffffffffffff1673ffffffffffffffffffffffffffffffffffffffff16815260200190815260200160002060009054906101000a900460ff16156103d95760005b600260003373ffffffffffffffffffffffffffffffffffffffff1673ffffffffffffffffffffffffffffffffffffffff168152602001908152602001600020805490508110156103d3578173ffffffffffffffffffffffffffffffffffffffff16600260003373ffffffffffffffffffffffffffffffffffffffff1673ffffffffffffffffffffffffffffffffffffffff16815260200190815260200160002082815481106102ff576102fe611ba7565b5b9060005260206000200160000160009054906101000a900473ffffffffffffffffffffffffffffffffffffffff1673ffffffffffffffffffffffffffffffffffffffff16036103c0576001600260003373ffffffffffffffffffffffffffffffffffffffff1673ffffffffffffffffffffffffffffffffffffffff168152602001908152602001600020828154811061039b5761039a611ba7565b5b9060005260206000200160000160146101000a81548160ff0219169083151502179055505b80806103cb90611c05565b91505061024d565b5061056a565b600260003373ffffffffffffffffffffffffffffffffffffffff1673ffffffffffffffffffffffffffffffffffffffff16815260200190815260200160002060405180604001604052808373ffffffffffffffffffffffffffffffffffffffff168152602001600115158152509080600181540180825580915050600190039060005260206000200160009091909190915060008201518160000160006101000a81548173ffffffffffffffffffffffffffffffffffffffff021916908373ffffffffffffffffffffffffffffffffffffffff16021790555060208201518160000160146101000a81548160ff02191690831515021790555050506001600360003373ffffffffffffffffffffffffffffffffffffffff1673ffffffffffffffffffffffffffffffffffffffff16815260200190815260200160002060008373ffffffffffffffffffffffffffffffffffffffff1673ffffffffffffffffffffffffffffffffffffffff16815260200190815260200160002060006101000a81548160ff0219169083151502179055505b50565b6000600160003373ffffffffffffffffffffffffffffffffffffffff1673ffffffffffffffffffffffffffffffffffffffff16815260200190815260200160002060008373ffffffffffffffffffffffffffffffffffffffff1673ffffffffffffffffffffffffffffffffffffffff16815260200190815260200160002060006101000a81548160ff02191690831515021790555060005b600260003373ffffffffffffffffffffffffffffffffffffffff1673ffffffffffffffffffffffffffffffffffffffff1681526020019081526020016000208054905081101561078b578173ffffffffffffffffffffffffffffffffffffffff16600260003373ffffffffffffffffffffffffffffffffffffffff1673ffffffffffffffffffffffffffffffffffffffff16815260200190815260200160002082815481106106b7576106b6611ba7565b5b9060005260206000200160000160009054906101000a900473ffffffffffffffffffffffffffffffffffffffff1673ffffffffffffffffffffffffffffffffffffffff1603610778576000600260003373ffffffffffffffffffffffffffffffffffffffff1673ffffffffffffffffffffffffffffffffffffffff168152602001908152602001600020828154811061075357610752611ba7565b5b9060005260206000200160000160146101000a81548160ff0219169083151502179055505b808061078390611c05565b915050610605565b5050565b6060600260003373ffffffffffffffffffffffffffffffffffffffff1673ffffffffffffffffffffffffffffffffffffffff168152602001908152602001600020805480602002602001604051908101604052809291908181526020016000905b8282101561088f578382906000526020600020016040518060400160405290816000820160009054906101000a900473ffffffffffffffffffffffffffffffffffffffff1673ffffffffffffffffffffffffffffffffffffffff1673ffffffffffffffffffffffffffffffffffffffff1681526020016000820160149054906101000a900460ff161515151581525050815260200190600101906107f0565b50505050905090565b60603373ffffffffffffffffffffffffffffffffffffffff168273ffffffffffffffffffffffffffffffffffffffff16148061095a5750600160008373ffffffffffffffffffffffffffffffffffffffff1673ffffffffffffffffffffffffffffffffffffffff16815260200190815260200160002060003373ffffffffffffffffffffffffffffffffffffffff1673ffffffffffffffffffffffffffffffffffffffff16815260200190815260200160002060009054906101000a900460ff165b610999576040517f08c379a000000000000000000000000000000000000000000000000000000000815260040161099090611caa565b60405180910390fd5b6000808373ffffffffffffffffffffffffffffffffffffffff1673ffffffffffffffffffffffffffffffffffffffff168152602001908152602001600020805480602002602001604051908101604052809291908181526020016000905b82821015610d6157838290600052602060002090600b020160405180610180016040529081600082015481526020016001820160009054906101000a900473ffffffffffffffffffffffffffffffffffffffff1673ffffffffffffffffffffffffffffffffffffffff1673ffffffffffffffffffffffffffffffffffffffff1681526020016002820154815260200160038201548152602001600482015481526020016005820160009054906101000a900460ff161515151581526020016005820160019054906101000a900460ff16151515158152602001600682018054610adf90611cf9565b80601f0160208091040260200160405190810160405280929190818152602001828054610b0b90611cf9565b8015610b585780601f10610b2d57610100808354040283529160200191610b58565b820191906000526020600020905b815481529060010190602001808311610b3b57829003601f168201915b50505050508152602001600782018054610b7190611cf9565b80601f0160208091040260200160405190810160405280929190818152602001828054610b9d90611cf9565b8015610bea5780601f10610bbf57610100808354040283529160200191610bea565b820191906000526020600020905b815481529060010190602001808311610bcd57829003601f168201915b50505050508152602001600882018054610c0390611cf9565b80601f0160208091040260200160405190810160405280929190818152602001828054610c2f90611cf9565b8015610c7c5780601f10610c5157610100808354040283529160200191610c7c565b820191906000526020600020905b815481529060010190602001808311610c5f57829003601f168201915b50505050508152602001600982018054610c9590611cf9565b80601f0160208091040260200160405190810160405280929190818152602001828054610cc190611cf9565b8015610d0e5780601f10610ce357610100808354040283529160200191610d0e565b820191906000526020600020905b815481529060010190602001808311610cf157829003601f168201915b50505050508152602001600a820160009054906101000a900460ff166006811115610d3c57610d3b6115e3565b5b6006811115610d4e57610d4d6115e3565b5b81525050815260200190600101906109f7565b505050509050919050565b60606000600767ffffffffffffffff811115610d8b57610d8a611919565b5b604051908082528060200260200182016040528015610dbe57816020015b6060815260200190600190039081610da95790505b5090506040518060400160405280600581526020017f4f746865720000000000000000000000000000000000000000000000000000008152508160006006811115610e0c57610e0b6115e3565b5b81518110610e1d57610e1c611ba7565b5b60200260200101819052506040518060400160405280600981526020017f456475636174696f6e00000000000000000000000000000000000000000000008152508160016006811115610e7357610e726115e3565b5b81518110610e8457610e83611ba7565b5b60200260200101819052506040518060400160405280600681526020017f4865616c746800000000000000000000000000000000000000000000000000008152508160026006811115610eda57610ed96115e3565b5b81518110610eeb57610eea611ba7565b5b60200260200101819052506040518060400160405280600781526020017f46696e616e6365000000000000000000000000000000000000000000000000008152508160036006811115610f4157610f406115e3565b5b81518110610f5257610f51611ba7565b5b60200260200101819052506040518060400160405280600881526020017f427573696e6573730000000000000000000000000000000000000000000000008152508160046006811115610fa857610fa76115e3565b5b81518110610fb957610fb8611ba7565b5b60200260200101819052506040518060400160405280600681526020017f46616d696c790000000000000000000000000000000000000000000000000000815250816005600681111561100f5761100e6115e3565b5b815181106110205761101f611ba7565b5b60200260200101819052506040518060400160405280600681526020017f52616e646f6d000000000000000000000000000000000000000000000000000081525081600680811115611075576110746115e3565b5b8151811061108657611085611ba7565b5b60200260200101819052508091505090565b60006040518061018001604052806110ae6112d3565b81526020018973ffffffffffffffffffffffffffffffffffffffff1681526020014281526020016000815260200160008152602001851515815260200160001515815260200183815260200188815260200187815260200186815260200184600681111561111f5761111e6115e3565b5b81525090506000803373ffffffffffffffffffffffffffffffffffffffff1673ffffffffffffffffffffffffffffffffffffffff1681526020019081526020016000208190806001815401808255809150506001900390600052602060002090600b02016000909190919091506000820151816000015560208201518160010160006101000a81548173ffffffffffffffffffffffffffffffffffffffff021916908373ffffffffffffffffffffffffffffffffffffffff16021790555060408201518160020155606082015181600301556080820151816004015560a08201518160050160006101000a81548160ff02191690831515021790555060c08201518160050160016101000a81548160ff02191690831515021790555060e08201518160060190816112509190611ed6565b506101008201518160070190816112679190611ed6565b5061012082015181600801908161127e9190611ed6565b506101408201518160090190816112959190611ed6565b5061016082015181600a0160006101000a81548160ff021916908360068111156112c2576112c16115e3565b5b021790555050505050505050505050565b60008060008060003373ffffffffffffffffffffffffffffffffffffffff1673ffffffffffffffffffffffffffffffffffffffff1681526020019081526020016000208054905090506000810361132d576000915061133d565b60018161133a9190611fa8565b91505b819250505090565b6000604051905090565b600080fd5b600080fd5b600073ffffffffffffffffffffffffffffffffffffffff82169050919050565b600061138482611359565b9050919050565b61139481611379565b811461139f57600080fd5b50565b6000813590506113b18161138b565b92915050565b6000602082840312156113cd576113cc61134f565b5b60006113db848285016113a2565b91505092915050565b600081519050919050565b600082825260208201905092915050565b6000819050602082019050919050565b61141981611379565b82525050565b60008115159050919050565b6114348161141f565b82525050565b6040820160008201516114506000850182611410565b506020820151611463602085018261142b565b50505050565b6000611475838361143a565b60408301905092915050565b6000602082019050919050565b6000611499826113e4565b6114a381856113ef565b93506114ae83611400565b8060005b838110156114df5781516114c68882611469565b97506114d183611481565b9250506001810190506114b2565b5085935050505092915050565b60006020820190508181036000830152611506818461148e565b905092915050565b600081519050919050565b600082825260208201905092915050565b6000819050602082019050919050565b6000819050919050565b61154d8161153a565b82525050565b600081519050919050565b600082825260208201905092915050565b60005b8381101561158d578082015181840152602081019050611572565b60008484015250505050565b6000601f19601f8301169050919050565b60006115b582611553565b6115bf818561155e565b93506115cf81856020860161156f565b6115d881611599565b840191505092915050565b7f4e487b7100000000000000000000000000000000000000000000000000000000600052602160045260246000fd5b60078110611623576116226115e3565b5b50565b600081905061163482611612565b919050565b600061164482611626565b9050919050565b61165481611639565b82525050565b6000610180830160008301516116736000860182611544565b5060208301516116866020860182611410565b5060408301516116996040860182611544565b5060608301516116ac6060860182611544565b5060808301516116bf6080860182611544565b5060a08301516116d260a086018261142b565b5060c08301516116e560c086018261142b565b5060e083015184820360e08601526116fd82826115aa565b91505061010083015184820361010086015261171982826115aa565b91505061012083015184820361012086015261173582826115aa565b91505061014083015184820361014086015261175182826115aa565b91505061016083015161176861016086018261164b565b508091505092915050565b600061177f838361165a565b905092915050565b6000602082019050919050565b600061179f8261150e565b6117a98185611519565b9350836020820285016117bb8561152a565b8060005b858110156117f757848403895281516117d88582611773565b94506117e383611787565b925060208a019950506001810190506117bf565b50829750879550505050505092915050565b600060208201905081810360008301526118238184611794565b905092915050565b600081519050919050565b600082825260208201905092915050565b6000819050602082019050919050565b600061186383836115aa565b905092915050565b6000602082019050919050565b60006118838261182b565b61188d8185611836565b93508360208202850161189f85611847565b8060005b858110156118db57848403895281516118bc8582611857565b94506118c78361186b565b925060208a019950506001810190506118a3565b50829750879550505050505092915050565b600060208201905081810360008301526119078184611878565b905092915050565b600080fd5b600080fd5b7f4e487b7100000000000000000000000000000000000000000000000000000000600052604160045260246000fd5b61195182611599565b810181811067ffffffffffffffff821117156119705761196f611919565b5b80604052505050565b6000611983611345565b905061198f8282611948565b919050565b600067ffffffffffffffff8211156119af576119ae611919565b5b6119b882611599565b9050602081019050919050565b82818337600083830152505050565b60006119e76119e284611994565b611979565b905082815260208101848484011115611a0357611a02611914565b5b611a0e8482856119c5565b509392505050565b600082601f830112611a2b57611a2a61190f565b5b8135611a3b8482602086016119d4565b91505092915050565b611a4d8161141f565b8114611a5857600080fd5b50565b600081359050611a6a81611a44565b92915050565b60078110611a7d57600080fd5b50565b600081359050611a8f81611a70565b92915050565b600080600080600080600060e0888a031215611ab457611ab361134f565b5b6000611ac28a828b016113a2565b975050602088013567ffffffffffffffff811115611ae357611ae2611354565b5b611aef8a828b01611a16565b965050604088013567ffffffffffffffff811115611b1057611b0f611354565b5b611b1c8a828b01611a16565b955050606088013567ffffffffffffffff811115611b3d57611b3c611354565b5b611b498a828b01611a16565b9450506080611b5a8a828b01611a5b565b93505060a0611b6b8a828b01611a80565b92505060c088013567ffffffffffffffff811115611b8c57611b8b611354565b5b611b988a828b01611a16565b91505092959891949750929550565b7f4e487b7100000000000000000000000000000000000000000000000000000000600052603260045260246000fd5b7f4e487b7100000000000000000000000000000000000000000000000000000000600052601160045260246000fd5b6000611c108261153a565b91507fffffffffffffffffffffffffffffffffffffffffffffffffffffffffffffffff8203611c4257611c41611bd6565b5b600182019050919050565b600082825260208201905092915050565b7f596f7520646f6e27742068617665206163636573730000000000000000000000600082015250565b6000611c94601583611c4d565b9150611c9f82611c5e565b602082019050919050565b60006020820190508181036000830152611cc381611c87565b9050919050565b7f4e487b7100000000000000000000000000000000000000000000000000000000600052602260045260246000fd5b60006002820490506001821680611d1157607f821691505b602082108103611d2457611d23611cca565b5b50919050565b60008190508160005260206000209050919050565b60006020601f8301049050919050565b600082821b905092915050565b600060088302611d8c7fffffffffffffffffffffffffffffffffffffffffffffffffffffffffffffffff82611d4f565b611d968683611d4f565b95508019841693508086168417925050509392505050565b6000819050919050565b6000611dd3611dce611dc98461153a565b611dae565b61153a565b9050919050565b6000819050919050565b611ded83611db8565b611e01611df982611dda565b848454611d5c565b825550505050565b600090565b611e16611e09565b611e21818484611de4565b505050565b5b81811015611e4557611e3a600082611e0e565b600181019050611e27565b5050565b601f821115611e8a57611e5b81611d2a565b611e6484611d3f565b81016020851015611e73578190505b611e87611e7f85611d3f565b830182611e26565b50505b505050565b600082821c905092915050565b6000611ead60001984600802611e8f565b1980831691505092915050565b6000611ec68383611e9c565b9150826002028217905092915050565b611edf82611553565b67ffffffffffffffff811115611ef857611ef7611919565b5b611f028254611cf9565b611f0d828285611e49565b600060209050601f831160018114611f405760008415611f2e578287015190505b611f388582611eba565b865550611fa0565b601f198416611f4e86611d2a565b60005b82811015611f7657848901518255600182019150602085019450602081019050611f51565b86831015611f935784890151611f8f601f891682611e9c565b8355505b6001600288020188555050505b505050505050565b6000611fb38261153a565b9150611fbe8361153a565b9250828201905080821115611fd657611fd5611bd6565b5b9291505056fea2646970667358221220ee470fff91049380396920583fc2cd3212274929886f8ba85ecd19f01f2f104564736f6c63430008110033",
  "linkReferences": {},
  "deployedLinkReferences": {}
}